{
  "contractName": "NotarizationManagement",
  "abi": [
    {
      "constant": true,
      "inputs": [
        {
          "name": "",
          "type": "bytes32"
        }
      ],
      "name": "usedHashes",
      "outputs": [
        {
          "name": "",
          "type": "bool"
        }
      ],
      "payable": false,
      "stateMutability": "view",
      "type": "function"
    },
    {
      "anonymous": false,
      "inputs": [
        {
          "indexed": false,
          "name": "blockNumber",
          "type": "uint256"
        },
        {
          "indexed": false,
          "name": "blockTimeStamp",
          "type": "uint256"
        },
        {
          "indexed": false,
          "name": "hash",
          "type": "bytes32"
        },
        {
          "indexed": false,
          "name": "from",
          "type": "address"
        },
        {
          "indexed": false,
          "name": "to",
          "type": "address"
        },
        {
          "indexed": false,
          "name": "permissionOfFrom",
          "type": "uint8"
        },
        {
          "indexed": false,
          "name": "permissionOfTo",
          "type": "uint8"
        }
      ],
      "name": "DocumentEvent",
      "type": "event"
    }
  ],
  "bytecode": "0x608060405234801561001057600080fd5b5060d68061001f6000396000f300608060405260043610603f576000357c0100000000000000000000000000000000000000000000000000000000900463ffffffff168063aef18bf7146044575b600080fd5b348015604f57600080fd5b5060706004803603810190808035600019169060200190929190505050608a565b604051808215151515815260200191505060405180910390f35b60036020528060005260406000206000915054906101000a900460ff16815600a165627a7a723058203ff2331a0d7c5d153ccdca4dccd9f4a5368b59764ae02f00b070eef0ce1c64c00029",
  "source": "pragma solidity ^0.4.23;\n\ncontract NotarizationManagement{\n  address owner;\n\n  uint documentCount;\n\n  enum PermissionType {master, owner, write, read, none}\n\n  struct DocumentTransfer {\n    uint blockNumber;\n    uint timestamp;\n    bytes32 hash;\n    address from;\n    address to;\n    PermissionType permissionOfFrom;\n    PermissionType permissionOfTo;\n  }\n\n  DocumentTransfer[] history;\n\n  mapping(bytes32 => bool) public usedHashes;\n\n  event DocumentEvent(uint blockNumber, uint blockTimeStamp, bytes32 hash, address from, address to, PermissionType permissionOfFrom, PermissionType permissionOfTo);\n\n  /**\n  * @dev use to add history of transfers and emit transfer event\n  * @param _hash hash of the document\n  * @param _from address from whom the transfer is originated\n  * @param _to addess to whom transfer is done\n  * @param _permissionOfFrom enum PermissionType of delegator\n  * @param _permissionOfFrom enum PermissionType of delegated\n  */\n  function transferDocument(bytes32 _hash, address _from, address _to, PermissionType _permissionOfFrom, PermissionType _permissionOfTo) internal{\n    //history.push(DocumentTransfer(block.number, block.timestamp, _hash, _from, _to, _permissionOfFrom, _permissionOfTo));\n    emit DocumentEvent(block.number, block.timestamp,  _hash, _from, _to, _permissionOfFrom, _permissionOfTo);\n  }\n\n  /**\n  * @dev use to check if the documents exists or not\n  * @param _hash hash of the document\n  */\n  function documentExists(bytes32 _hash) constant internal returns (bool exists){\n    if (usedHashes[_hash]) {\n      exists = true;\n    }else{\n      exists= false;\n    }\n    return exists;\n  }\n\n  /**\n  * @dev returns the total number of documents/hashes\n  */\n  function getLatest() constant internal returns (uint latest){\n      return documentCount;\n  }\n}\n",
  "sourcePath": "/home/ashwin/Desktop/Rockchain/forTruffle/contracts/NotarizationManagement.sol",
  "compiler": {
    "name": "solc",
    "version": "0.4.24+commit.e67f0147.Emscripten.clang"
  },
  "schemaVersion": "2.0.0",
  "updatedAt": "2018-07-10T09:12:14.359Z"
}