{
  "contractName": "PermissionManagement",
  "abi": [
    {
      "constant": true,
      "inputs": [
        {
          "name": "",
          "type": "bytes32"
        }
      ],
      "name": "usedHashes",
      "outputs": [
        {
          "name": "",
          "type": "bool"
        }
      ],
      "payable": false,
      "stateMutability": "view",
      "type": "function"
    },
    {
      "inputs": [],
      "payable": false,
      "stateMutability": "nonpayable",
      "type": "constructor"
    },
    {
      "anonymous": false,
      "inputs": [
        {
          "indexed": false,
          "name": "hash",
          "type": "bytes32"
        },
        {
          "indexed": false,
          "name": "master",
          "type": "address"
        },
        {
          "indexed": false,
          "name": "blockNumber",
          "type": "uint256"
        }
      ],
      "name": "NewDocument",
      "type": "event"
    },
    {
      "anonymous": false,
      "inputs": [
        {
          "indexed": false,
          "name": "blockNumber",
          "type": "uint256"
        },
        {
          "indexed": false,
          "name": "blockTimeStamp",
          "type": "uint256"
        },
        {
          "indexed": false,
          "name": "hash",
          "type": "bytes32"
        },
        {
          "indexed": false,
          "name": "from",
          "type": "address"
        },
        {
          "indexed": false,
          "name": "to",
          "type": "address"
        },
        {
          "indexed": false,
          "name": "permissionOfFrom",
          "type": "uint8"
        },
        {
          "indexed": false,
          "name": "permissionOfTo",
          "type": "uint8"
        }
      ],
      "name": "DocumentEvent",
      "type": "event"
    },
    {
      "constant": false,
      "inputs": [
        {
          "name": "_hash",
          "type": "bytes32"
        }
      ],
      "name": "newDocument",
      "outputs": [
        {
          "name": "success",
          "type": "bool"
        }
      ],
      "payable": false,
      "stateMutability": "nonpayable",
      "type": "function"
    },
    {
      "constant": true,
      "inputs": [
        {
          "name": "_hash",
          "type": "bytes32"
        }
      ],
      "name": "checkYourPermission",
      "outputs": [
        {
          "name": "",
          "type": "uint8"
        }
      ],
      "payable": false,
      "stateMutability": "view",
      "type": "function"
    },
    {
      "constant": true,
      "inputs": [
        {
          "name": "_delegate",
          "type": "address"
        },
        {
          "name": "_hash",
          "type": "bytes32"
        }
      ],
      "name": "checkDelegatePermission",
      "outputs": [
        {
          "name": "",
          "type": "uint8"
        }
      ],
      "payable": false,
      "stateMutability": "view",
      "type": "function"
    },
    {
      "constant": false,
      "inputs": [
        {
          "name": "_delegate",
          "type": "address"
        },
        {
          "name": "_hash",
          "type": "bytes32"
        }
      ],
      "name": "delegatePermanentOwner",
      "outputs": [],
      "payable": false,
      "stateMutability": "nonpayable",
      "type": "function"
    },
    {
      "constant": false,
      "inputs": [
        {
          "name": "_delegate",
          "type": "address"
        },
        {
          "name": "_hash",
          "type": "bytes32"
        },
        {
          "name": "_fromTime",
          "type": "uint256"
        },
        {
          "name": "_toTime",
          "type": "uint256"
        }
      ],
      "name": "delegateTimeRestrictedOwner",
      "outputs": [],
      "payable": false,
      "stateMutability": "nonpayable",
      "type": "function"
    },
    {
      "constant": false,
      "inputs": [
        {
          "name": "_delegate",
          "type": "address"
        },
        {
          "name": "_hash",
          "type": "bytes32"
        }
      ],
      "name": "removePermanentOwner",
      "outputs": [],
      "payable": false,
      "stateMutability": "nonpayable",
      "type": "function"
    },
    {
      "constant": false,
      "inputs": [
        {
          "name": "_delegate",
          "type": "address"
        },
        {
          "name": "_hash",
          "type": "bytes32"
        }
      ],
      "name": "delegatePermanentWrite",
      "outputs": [],
      "payable": false,
      "stateMutability": "nonpayable",
      "type": "function"
    },
    {
      "constant": false,
      "inputs": [
        {
          "name": "_delegate",
          "type": "address"
        },
        {
          "name": "_hash",
          "type": "bytes32"
        },
        {
          "name": "_fromTime",
          "type": "uint256"
        },
        {
          "name": "_toTime",
          "type": "uint256"
        }
      ],
      "name": "delegateTimeRestrictedWrite",
      "outputs": [],
      "payable": false,
      "stateMutability": "nonpayable",
      "type": "function"
    },
    {
      "constant": false,
      "inputs": [
        {
          "name": "_delegate",
          "type": "address"
        },
        {
          "name": "_hash",
          "type": "bytes32"
        }
      ],
      "name": "removePermanentWrite",
      "outputs": [],
      "payable": false,
      "stateMutability": "nonpayable",
      "type": "function"
    },
    {
      "constant": false,
      "inputs": [
        {
          "name": "_delegate",
          "type": "address"
        },
        {
          "name": "_hash",
          "type": "bytes32"
        }
      ],
      "name": "delegatePermanentRead",
      "outputs": [],
      "payable": false,
      "stateMutability": "nonpayable",
      "type": "function"
    },
    {
      "constant": false,
      "inputs": [
        {
          "name": "_delegate",
          "type": "address"
        },
        {
          "name": "_hash",
          "type": "bytes32"
        },
        {
          "name": "_fromTime",
          "type": "uint256"
        },
        {
          "name": "_toTime",
          "type": "uint256"
        }
      ],
      "name": "delegateTimeRestrictedRead",
      "outputs": [],
      "payable": false,
      "stateMutability": "nonpayable",
      "type": "function"
    },
    {
      "constant": false,
      "inputs": [
        {
          "name": "_delegate",
          "type": "address"
        },
        {
          "name": "_hash",
          "type": "bytes32"
        }
      ],
      "name": "removePermanentRead",
      "outputs": [],
      "payable": false,
      "stateMutability": "nonpayable",
      "type": "function"
    }
  ],
  "bytecode": "0x608060405234801561001057600080fd5b50336000806101000a81548173ffffffffffffffffffffffffffffffffffffffff021916908373ffffffffffffffffffffffffffffffffffffffff160217905550613aa6806100606000396000f3006080604052600436106100c5576000357c0100000000000000000000000000000000000000000000000000000000900463ffffffff16806306ec6426146100ca5780632847a7af1461012f5780632c48c756146101785780634c506146146101dd5780636ca27cec1461022e5780636caa147b1461027f5780637afbe587146102d0578063aef18bf714610335578063bee504e01461037e578063c57c4823146103d1578063e286ed8a14610444578063f24c29f414610495578063f2a29292146104e6575b600080fd5b3480156100d657600080fd5b5061012d600480360381019080803573ffffffffffffffffffffffffffffffffffffffff16906020019092919080356000191690602001909291908035906020019092919080359060200190929190505050610537565b005b34801561013b57600080fd5b5061015e6004803603810190808035600019169060200190929190505050610832565b604051808215151515815260200191505060405180910390f35b34801561018457600080fd5b506101db600480360381019080803573ffffffffffffffffffffffffffffffffffffffff16906020019092919080356000191690602001909291908035906020019092919080359060200190929190505050610b24565b005b3480156101e957600080fd5b5061022c600480360381019080803573ffffffffffffffffffffffffffffffffffffffff16906020019092919080356000191690602001909291905050506111c2565b005b34801561023a57600080fd5b5061027d600480360381019080803573ffffffffffffffffffffffffffffffffffffffff1690602001909291908035600019169060200190929190505050611493565b005b34801561028b57600080fd5b506102ce600480360381019080803573ffffffffffffffffffffffffffffffffffffffff16906020019092919080356000191690602001909291905050506117d8565b005b3480156102dc57600080fd5b50610333600480360381019080803573ffffffffffffffffffffffffffffffffffffffff169060200190929190803560001916906020019092919080359060200190929190803590602001909291905050506119f1565b005b34801561034157600080fd5b506103646004803603810190808035600019169060200190929190505050612aa0565b604051808215151515815260200191505060405180910390f35b34801561038a57600080fd5b506103ad6004803603810190808035600019169060200190929190505050612ac0565b604051808260048111156103bd57fe5b60ff16815260200191505060405180910390f35b3480156103dd57600080fd5b50610420600480360381019080803573ffffffffffffffffffffffffffffffffffffffff1690602001909291908035600019169060200190929190505050612b50565b6040518082600481111561043057fe5b60ff16815260200191505060405180910390f35b34801561045057600080fd5b50610493600480360381019080803573ffffffffffffffffffffffffffffffffffffffff1690602001909291908035600019169060200190929190505050612c13565b005b3480156104a157600080fd5b506104e4600480360381019080803573ffffffffffffffffffffffffffffffffffffffff1690602001909291908035600019169060200190929190505050612e2e565b005b3480156104f257600080fd5b50610535600480360381019080803573ffffffffffffffffffffffffffffffffffffffff16906020019092919080356000191690602001909291905050506130bb565b005b6105408361326d565b15156105b4576040517f08c379a00000000000000000000000000000000000000000000000000000000081526004018080602001828103825260178152602001807f446f63756d656e7420646f6573206e6f7420657869737400000000000000000081525060200191505060405180910390fd5b600360048111156105c157fe5b6105cb85856132b3565b60048111156105d657fe5b1415151561064c576040517f08c379a00000000000000000000000000000000000000000000000000000000081526004018080602001828103825260188152602001807f44656c656761746520616c7265616479206578697374732e000000000000000081525060200191505060405180910390fd5b3373ffffffffffffffffffffffffffffffffffffffff1660046000856000191660001916815260200190815260200160002060000160009054906101000a900473ffffffffffffffffffffffffffffffffffffffff1673ffffffffffffffffffffffffffffffffffffffff1614806106ca57506106c93384613506565b5b806106db57506106da3384613591565b5b806106ec57506106eb338461361c565b5b1561082c57600160046000856000191660001916815260200190815260200160002060070160008673ffffffffffffffffffffffffffffffffffffffff1673ffffffffffffffffffffffffffffffffffffffff16815260200190815260200160002060006101000a81548160ff02191690831515021790555081600460008560001916600019168152602001908152602001600020600c0160008673ffffffffffffffffffffffffffffffffffffffff1673ffffffffffffffffffffffffffffffffffffffff1681526020019081526020016000206000018190555080600460008560001916600019168152602001908152602001600020600c0160008673ffffffffffffffffffffffffffffffffffffffff1673ffffffffffffffffffffffffffffffffffffffff168152602001908152602001600020600101819055505b50505050565b600061083d8261326d565b1561084b5760009050610b1c565b600160008154600101919050819055503360046000846000191660001916815260200190815260200160002060000160006101000a81548173ffffffffffffffffffffffffffffffffffffffff021916908373ffffffffffffffffffffffffffffffffffffffff160217905550600160036000846000191660001916815260200190815260200160002060006101000a81548160ff021916908315150217905550600260e060405190810160405280438152602001428152602001846000191681526020013373ffffffffffffffffffffffffffffffffffffffff1681526020013373ffffffffffffffffffffffffffffffffffffffff1681526020016000600481111561095557fe5b81526020016000600481111561096757fe5b8152509080600181540180825580915050906001820390600052602060002090600502016000909192909190915060008201518160000155602082015181600101556040820151816002019060001916905560608201518160030160006101000a81548173ffffffffffffffffffffffffffffffffffffffff021916908373ffffffffffffffffffffffffffffffffffffffff16021790555060808201518160040160006101000a81548173ffffffffffffffffffffffffffffffffffffffff021916908373ffffffffffffffffffffffffffffffffffffffff16021790555060a08201518160040160146101000a81548160ff02191690836004811115610a6b57fe5b021790555060c08201518160040160156101000a81548160ff02191690836004811115610a9457fe5b02179055505050507fdb0cb24f9a64b8efb05388cfb2eeb0773513770b2d5a64ce7905dbd03e93fc2e8233436040518084600019166000191681526020018373ffffffffffffffffffffffffffffffffffffffff1673ffffffffffffffffffffffffffffffffffffffff168152602001828152602001935050505060405180910390a1600190505b809050919050565b610b2d8361326d565b1515610ba1576040517f08c379a00000000000000000000000000000000000000000000000000000000081526004018080602001828103825260178152602001807f446f63756d656e7420646f6573206e6f7420657869737400000000000000000081525060200191505060405180910390fd5b60026004811115610bae57fe5b610bb885856132b3565b6004811115610bc357fe5b14151515610c39576040517f08c379a00000000000000000000000000000000000000000000000000000000081526004018080602001828103825260178152602001807f44656c656761746520416c72656164792045786973747300000000000000000081525060200191505060405180910390fd5b60006004811115610c4657fe5b610c5033856132b3565b6004811115610c5b57fe5b1480610c86575060016004811115610c6f57fe5b610c7933856132b3565b6004811115610c8457fe5b145b156111bb5760036004811115610c9857fe5b610ca285856132b3565b6004811115610cad57fe5b141561107c576001151560046000856000191660001916815260200190815260200160002060070160008673ffffffffffffffffffffffffffffffffffffffff1673ffffffffffffffffffffffffffffffffffffffff16815260200190815260200160002060009054906101000a900460ff1615151415610f3d5781600460008560001916600019168152602001908152602001600020600c0160008673ffffffffffffffffffffffffffffffffffffffff1673ffffffffffffffffffffffffffffffffffffffff1681526020019081526020016000206000015411158015610df4575080600460008560001916600019168152602001908152602001600020600c0160008673ffffffffffffffffffffffffffffffffffffffff1673ffffffffffffffffffffffffffffffffffffffff1681526020019081526020016000206001015410155b15610f3857600160046000856000191660001916815260200190815260200160002060080160008673ffffffffffffffffffffffffffffffffffffffff1673ffffffffffffffffffffffffffffffffffffffff16815260200190815260200160002060006101000a81548160ff02191690831515021790555081600460008560001916600019168152602001908152602001600020600b0160008673ffffffffffffffffffffffffffffffffffffffff1673ffffffffffffffffffffffffffffffffffffffff1681526020019081526020016000206000018190555080600460008560001916600019168152602001908152602001600020600b0160008673ffffffffffffffffffffffffffffffffffffffff1673ffffffffffffffffffffffffffffffffffffffff168152602001908152602001600020600101819055506111bc565b6111bc565b600160046000856000191660001916815260200190815260200160002060080160008673ffffffffffffffffffffffffffffffffffffffff1673ffffffffffffffffffffffffffffffffffffffff16815260200190815260200160002060006101000a81548160ff02191690831515021790555081600460008560001916600019168152602001908152602001600020600b0160008673ffffffffffffffffffffffffffffffffffffffff1673ffffffffffffffffffffffffffffffffffffffff1681526020019081526020016000206000018190555080600460008560001916600019168152602001908152602001600020600b0160008673ffffffffffffffffffffffffffffffffffffffff1673ffffffffffffffffffffffffffffffffffffffff168152602001908152602001600020600101819055506111bc565b600160046000856000191660001916815260200190815260200160002060070160008673ffffffffffffffffffffffffffffffffffffffff1673ffffffffffffffffffffffffffffffffffffffff16815260200190815260200160002060006101000a81548160ff02191690831515021790555081600460008560001916600019168152602001908152602001600020600b0160008673ffffffffffffffffffffffffffffffffffffffff1673ffffffffffffffffffffffffffffffffffffffff1681526020019081526020016000206000018190555080600460008560001916600019168152602001908152602001600020600b0160008673ffffffffffffffffffffffffffffffffffffffff1673ffffffffffffffffffffffffffffffffffffffff168152602001908152602001600020600101819055506111bc565b5b50505050565b6111cb8161326d565b151561123f576040517f08c379a00000000000000000000000000000000000000000000000000000000081526004018080602001828103825260178152602001807f446f63756d656e7420646f6573206e6f7420657869737400000000000000000081525060200191505060405180910390fd5b3373ffffffffffffffffffffffffffffffffffffffff1660046000836000191660001916815260200190815260200160002060000160009054906101000a900473ffffffffffffffffffffffffffffffffffffffff1673ffffffffffffffffffffffffffffffffffffffff16141515611346576040517f08c379a00000000000000000000000000000000000000000000000000000000081526004018080602001828103825260218152602001807f43616c6c657220646f6573206e6f7420686173206d617374657220616363657381526020017f730000000000000000000000000000000000000000000000000000000000000081525060400191505060405180910390fd5b6001600481111561135357fe5b61135d83836132b3565b600481111561136857fe5b1415156113dd576040517f08c379a000000000000000000000000000000000000000000000000000000000815260040180806020018281038252600d8152602001807f4e6f7420616e206f776e65722e0000000000000000000000000000000000000081525060200191505060405180910390fd5b600060046000836000191660001916815260200190815260200160002060010160008473ffffffffffffffffffffffffffffffffffffffff1673ffffffffffffffffffffffffffffffffffffffff16815260200190815260200160002060006101000a81548160ff021916908315150217905550600460008260001916600019168152602001908152602001600020600401600081548092919060019003919050555061148f813384600060046136a7565b5050565b61149c8161326d565b1515611510576040517f08c379a00000000000000000000000000000000000000000000000000000000081526004018080602001828103825260178152602001807f446f63756d656e7420646f6573206e6f7420657869737400000000000000000081525060200191505060405180910390fd5b3373ffffffffffffffffffffffffffffffffffffffff1660046000836000191660001916815260200190815260200160002060000160009054906101000a900473ffffffffffffffffffffffffffffffffffffffff1673ffffffffffffffffffffffffffffffffffffffff16141515611617576040517f08c379a00000000000000000000000000000000000000000000000000000000081526004018080602001828103825260218152602001807f43616c6c657220646f6573206e6f7420686173206d617374657220616363657381526020017f730000000000000000000000000000000000000000000000000000000000000081525060400191505060405180910390fd5b6001600481111561162457fe5b61162e83836132b3565b600481111561163957fe5b141515156116af576040517f08c379a00000000000000000000000000000000000000000000000000000000081526004018080602001828103825260178152602001807f44656c656761746520616c72656164792065786973747300000000000000000081525060200191505060405180910390fd5b600060046000836000191660001916815260200190815260200160002060070160008473ffffffffffffffffffffffffffffffffffffffff1673ffffffffffffffffffffffffffffffffffffffff16815260200190815260200160002060006101000a81548160ff021916908315150217905550600160046000836000191660001916815260200190815260200160002060010160008473ffffffffffffffffffffffffffffffffffffffff1673ffffffffffffffffffffffffffffffffffffffff16815260200190815260200160002060006101000a81548160ff021916908315150217905550600460008260001916600019168152602001908152602001600020600401600081548092919060010191905055506117d4813384600060016136a7565b5050565b60006117e38261326d565b1515611857576040517f08c379a00000000000000000000000000000000000000000000000000000000081526004018080602001828103825260178152602001807f446f63756d656e7420646f6573206e6f7420657869737400000000000000000081525060200191505060405180910390fd5b6002600481111561186457fe5b61186e84846132b3565b600481111561187957fe5b1415156118ee576040517f08c379a00000000000000000000000000000000000000000000000000000000081526004018080602001828103825260188152602001807f44656c656761746520646f6573206e6f742065786973742e000000000000000081525060200191505060405180910390fd5b6118f833836132b3565b90506000600481111561190757fe5b81600481111561191357fe5b148061193557506001600481111561192757fe5b81600481111561193357fe5b145b156119ec57600060046000846000191660001916815260200190815260200160002060020160008573ffffffffffffffffffffffffffffffffffffffff1673ffffffffffffffffffffffffffffffffffffffff16815260200190815260200160002060006101000a81548160ff02191690831515021790555060046000836000191660001916815260200190815260200160002060050160008154809291906001900391905055506119eb8233858460046136a7565b5b505050565b6119fa8361326d565b1515611a6e576040517f08c379a00000000000000000000000000000000000000000000000000000000081526004018080602001828103825260178152602001807f446f63756d656e7420646f6573206e6f7420657869737400000000000000000081525060200191505060405180910390fd5b3373ffffffffffffffffffffffffffffffffffffffff1660046000856000191660001916815260200190815260200160002060000160009054906101000a900473ffffffffffffffffffffffffffffffffffffffff1673ffffffffffffffffffffffffffffffffffffffff16141515611b75576040517f08c379a00000000000000000000000000000000000000000000000000000000081526004018080602001828103825260218152602001807f43616c6c657220646f6573206e6f7420686173206d617374657220616363657381526020017f730000000000000000000000000000000000000000000000000000000000000081525060400191505060405180910390fd5b60016004811115611b8257fe5b611b8c85856132b3565b6004811115611b9757fe5b14151515611c0d576040517f08c379a00000000000000000000000000000000000000000000000000000000081526004018080602001828103825260188152602001807f44656c656761746520616c7265616479206578697374732e000000000000000081525060200191505060405180910390fd5b60026004811115611c1a57fe5b611c2485856132b3565b6004811115611c2f57fe5b1480611c5a575060036004811115611c4357fe5b611c4d85856132b3565b6004811115611c5857fe5b145b1561295a5760026004811115611c6c57fe5b611c7685856132b3565b6004811115611c8157fe5b1415612564576001151560046000856000191660001916815260200190815260200160002060070160008673ffffffffffffffffffffffffffffffffffffffff1673ffffffffffffffffffffffffffffffffffffffff16815260200190815260200160002060009054906101000a900460ff161515141561219b576001151560046000856000191660001916815260200190815260200160002060080160008673ffffffffffffffffffffffffffffffffffffffff1673ffffffffffffffffffffffffffffffffffffffff16815260200190815260200160002060009054906101000a900460ff1615151415611f865781600460008560001916600019168152602001908152602001600020600b0160008673ffffffffffffffffffffffffffffffffffffffff1673ffffffffffffffffffffffffffffffffffffffff1681526020019081526020016000206000015411158015611e3d575080600460008560001916600019168152602001908152602001600020600b0160008673ffffffffffffffffffffffffffffffffffffffff1673ffffffffffffffffffffffffffffffffffffffff1681526020019081526020016000206001015410155b15611f8157600160046000856000191660001916815260200190815260200160002060090160008673ffffffffffffffffffffffffffffffffffffffff1673ffffffffffffffffffffffffffffffffffffffff16815260200190815260200160002060006101000a81548160ff02191690831515021790555081600460008560001916600019168152602001908152602001600020600a0160008673ffffffffffffffffffffffffffffffffffffffff1673ffffffffffffffffffffffffffffffffffffffff1681526020019081526020016000206000018190555080600460008560001916600019168152602001908152602001600020600a0160008673ffffffffffffffffffffffffffffffffffffffff1673ffffffffffffffffffffffffffffffffffffffff16815260200190815260200160002060010181905550612a9a565b612a9a565b81600460008560001916600019168152602001908152602001600020600b0160008673ffffffffffffffffffffffffffffffffffffffff1673ffffffffffffffffffffffffffffffffffffffff1681526020019081526020016000206000015411158015612052575080600460008560001916600019168152602001908152602001600020600b0160008673ffffffffffffffffffffffffffffffffffffffff1673ffffffffffffffffffffffffffffffffffffffff1681526020019081526020016000206001015410155b1561219657600160046000856000191660001916815260200190815260200160002060080160008673ffffffffffffffffffffffffffffffffffffffff1673ffffffffffffffffffffffffffffffffffffffff16815260200190815260200160002060006101000a81548160ff02191690831515021790555081600460008560001916600019168152602001908152602001600020600a0160008673ffffffffffffffffffffffffffffffffffffffff1673ffffffffffffffffffffffffffffffffffffffff1681526020019081526020016000206000018190555080600460008560001916600019168152602001908152602001600020600a0160008673ffffffffffffffffffffffffffffffffffffffff1673ffffffffffffffffffffffffffffffffffffffff16815260200190815260200160002060010181905550612a9a565b612a9a565b6001151560046000856000191660001916815260200190815260200160002060080160008673ffffffffffffffffffffffffffffffffffffffff1673ffffffffffffffffffffffffffffffffffffffff16815260200190815260200160002060009054906101000a900460ff16151514156124255781600460008560001916600019168152602001908152602001600020600b0160008673ffffffffffffffffffffffffffffffffffffffff1673ffffffffffffffffffffffffffffffffffffffff16815260200190815260200160002060000154111580156122dc575080600460008560001916600019168152602001908152602001600020600b0160008673ffffffffffffffffffffffffffffffffffffffff1673ffffffffffffffffffffffffffffffffffffffff1681526020019081526020016000206001015410155b1561242057600160046000856000191660001916815260200190815260200160002060090160008673ffffffffffffffffffffffffffffffffffffffff1673ffffffffffffffffffffffffffffffffffffffff16815260200190815260200160002060006101000a81548160ff02191690831515021790555081600460008560001916600019168152602001908152602001600020600a0160008673ffffffffffffffffffffffffffffffffffffffff1673ffffffffffffffffffffffffffffffffffffffff1681526020019081526020016000206000018190555080600460008560001916600019168152602001908152602001600020600a0160008673ffffffffffffffffffffffffffffffffffffffff1673ffffffffffffffffffffffffffffffffffffffff16815260200190815260200160002060010181905550612a9a565b612a9a565b600160046000856000191660001916815260200190815260200160002060080160008673ffffffffffffffffffffffffffffffffffffffff1673ffffffffffffffffffffffffffffffffffffffff16815260200190815260200160002060006101000a81548160ff02191690831515021790555081600460008560001916600019168152602001908152602001600020600a0160008673ffffffffffffffffffffffffffffffffffffffff1673ffffffffffffffffffffffffffffffffffffffff1681526020019081526020016000206000018190555080600460008560001916600019168152602001908152602001600020600a0160008673ffffffffffffffffffffffffffffffffffffffff1673ffffffffffffffffffffffffffffffffffffffff16815260200190815260200160002060010181905550612a9a565b6003600481111561257157fe5b61257b85856132b3565b600481111561258657fe5b1415612955576001151560046000856000191660001916815260200190815260200160002060070160008673ffffffffffffffffffffffffffffffffffffffff1673ffffffffffffffffffffffffffffffffffffffff16815260200190815260200160002060009054906101000a900460ff16151514156128165781600460008560001916600019168152602001908152602001600020600c0160008673ffffffffffffffffffffffffffffffffffffffff1673ffffffffffffffffffffffffffffffffffffffff16815260200190815260200160002060000154111580156126cd575080600460008560001916600019168152602001908152602001600020600c0160008673ffffffffffffffffffffffffffffffffffffffff1673ffffffffffffffffffffffffffffffffffffffff1681526020019081526020016000206001015410155b1561281157600160046000856000191660001916815260200190815260200160002060080160008673ffffffffffffffffffffffffffffffffffffffff1673ffffffffffffffffffffffffffffffffffffffff16815260200190815260200160002060006101000a81548160ff02191690831515021790555081600460008560001916600019168152602001908152602001600020600a0160008673ffffffffffffffffffffffffffffffffffffffff1673ffffffffffffffffffffffffffffffffffffffff1681526020019081526020016000206000018190555080600460008560001916600019168152602001908152602001600020600a0160008673ffffffffffffffffffffffffffffffffffffffff1673ffffffffffffffffffffffffffffffffffffffff16815260200190815260200160002060010181905550612a9a565b612a9a565b600160046000856000191660001916815260200190815260200160002060080160008673ffffffffffffffffffffffffffffffffffffffff1673ffffffffffffffffffffffffffffffffffffffff16815260200190815260200160002060006101000a81548160ff02191690831515021790555081600460008560001916600019168152602001908152602001600020600a0160008673ffffffffffffffffffffffffffffffffffffffff1673ffffffffffffffffffffffffffffffffffffffff1681526020019081526020016000206000018190555080600460008560001916600019168152602001908152602001600020600a0160008673ffffffffffffffffffffffffffffffffffffffff1673ffffffffffffffffffffffffffffffffffffffff16815260200190815260200160002060010181905550612a9a565b612a99565b600160046000856000191660001916815260200190815260200160002060070160008673ffffffffffffffffffffffffffffffffffffffff1673ffffffffffffffffffffffffffffffffffffffff16815260200190815260200160002060006101000a81548160ff02191690831515021790555081600460008560001916600019168152602001908152602001600020600a0160008673ffffffffffffffffffffffffffffffffffffffff1673ffffffffffffffffffffffffffffffffffffffff1681526020019081526020016000206000018190555080600460008560001916600019168152602001908152602001600020600a0160008673ffffffffffffffffffffffffffffffffffffffff1673ffffffffffffffffffffffffffffffffffffffff16815260200190815260200160002060010181905550612a9a565b5b50505050565b60036020528060005260406000206000915054906101000a900460ff1681565b6000612acb8261326d565b1515612b3f576040517f08c379a00000000000000000000000000000000000000000000000000000000081526004018080602001828103825260178152602001807f446f63756d656e7420646f6573206e6f7420657869737400000000000000000081525060200191505060405180910390fd5b612b4933836132b3565b9050919050565b6000612b5b8261326d565b1515612bcf576040517f08c379a00000000000000000000000000000000000000000000000000000000081526004018080602001828103825260178152602001807f446f63756d656e7420646f6573206e6f7420657869737400000000000000000081525060200191505060405180910390fd5b600480811115612bdb57fe5b612be533846132b3565b6004811115612bf057fe5b141515612c0857612c0183836132b3565b9050612c0d565b600490505b92915050565b6000612c1e8261326d565b1515612c92576040517f08c379a00000000000000000000000000000000000000000000000000000000081526004018080602001828103825260178152602001807f446f63756d656e7420646f6573206e6f7420657869737400000000000000000081525060200191505060405180910390fd5b60036004811115612c9f57fe5b612ca984846132b3565b6004811115612cb457fe5b141515612d29576040517f08c379a00000000000000000000000000000000000000000000000000000000081526004018080602001828103825260188152602001807f44656c656761746520646f6573206e6f742065786973742e000000000000000081525060200191505060405180910390fd5b612d3383836132b3565b905060036004811115612d4257fe5b816004811115612d4e57fe5b14158015612d725750600480811115612d6357fe5b816004811115612d6f57fe5b14155b15612e2957600060046000846000191660001916815260200190815260200160002060030160008573ffffffffffffffffffffffffffffffffffffffff1673ffffffffffffffffffffffffffffffffffffffff16815260200190815260200160002060006101000a81548160ff0219169083151502179055506004600083600019166000191681526020019081526020016000206006016000815480929190600190039190505550612e288233858460046136a7565b5b505050565b6000612e398261326d565b1515612ead576040517f08c379a00000000000000000000000000000000000000000000000000000000081526004018080602001828103825260178152602001807f446f63756d656e7420646f6573206e6f7420657869737400000000000000000081525060200191505060405180910390fd5b60026004811115612eba57fe5b612ec484846132b3565b6004811115612ecf57fe5b14151515612f45576040517f08c379a00000000000000000000000000000000000000000000000000000000081526004018080602001828103825260178152602001807f44656c656761746520416c72656164792045786973747300000000000000000081525060200191505060405180910390fd5b612f4f33836132b3565b905060006004811115612f5e57fe5b816004811115612f6a57fe5b1480612f8c575060016004811115612f7e57fe5b816004811115612f8a57fe5b145b156130b657600060046000846000191660001916815260200190815260200160002060070160008573ffffffffffffffffffffffffffffffffffffffff1673ffffffffffffffffffffffffffffffffffffffff16815260200190815260200160002060006101000a81548160ff021916908315150217905550600160046000846000191660001916815260200190815260200160002060020160008573ffffffffffffffffffffffffffffffffffffffff1673ffffffffffffffffffffffffffffffffffffffff16815260200190815260200160002060006101000a81548160ff021916908315150217905550600460008360001916600019168152602001908152602001600020600501600081548092919060010191905055506130b58233858460026136a7565b5b505050565b60006130c68261326d565b151561313a576040517f08c379a00000000000000000000000000000000000000000000000000000000081526004018080602001828103825260178152602001807f446f63756d656e7420646f6573206e6f7420657869737400000000000000000081525060200191505060405180910390fd5b6003600481111561314757fe5b61315184846132b3565b600481111561315c57fe5b1415151561316957600080fd5b61317383836132b3565b90506003600481111561318257fe5b81600481111561318e57fe5b141580156131b257506004808111156131a357fe5b8160048111156131af57fe5b14155b1561326857600060046000846000191660001916815260200190815260200160002060070160008573ffffffffffffffffffffffffffffffffffffffff1673ffffffffffffffffffffffffffffffffffffffff16815260200190815260200160002060006101000a81548160ff021916908315150217905550600460008360001916600019168152602001908152602001600020600601600081548092919060010191905055506132678233858460036136a7565b5b505050565b600060036000836000191660001916815260200190815260200160002060009054906101000a900460ff16156132a657600190506132ab565b600090505b809050919050565b60008273ffffffffffffffffffffffffffffffffffffffff1660046000846000191660001916815260200190815260200160002060000160009054906101000a900473ffffffffffffffffffffffffffffffffffffffff1673ffffffffffffffffffffffffffffffffffffffff1614156133305760009050613500565b6000151560046000846000191660001916815260200190815260200160002060070160008573ffffffffffffffffffffffffffffffffffffffff1673ffffffffffffffffffffffffffffffffffffffff16815260200190815260200160002060009054906101000a900460ff1615151415613475576001151560046000846000191660001916815260200190815260200160002060080160008573ffffffffffffffffffffffffffffffffffffffff1673ffffffffffffffffffffffffffffffffffffffff16815260200190815260200160002060009054906101000a900460ff16151514156134645760048081111561342657fe5b6134308484613791565b600481111561343b57fe5b1415156134535761344c8383613791565b9050613500565b61345d8383613a29565b9050613500565b61346e8383613a29565b9050613500565b6001151560046000846000191660001916815260200190815260200160002060070160008573ffffffffffffffffffffffffffffffffffffffff1673ffffffffffffffffffffffffffffffffffffffff16815260200190815260200160002060009054906101000a900460ff16151514156134fb576134f48383613791565b9050613500565b600490505b92915050565b60006001151560046000846000191660001916815260200190815260200160002060010160008573ffffffffffffffffffffffffffffffffffffffff1673ffffffffffffffffffffffffffffffffffffffff16815260200190815260200160002060009054906101000a900460ff1615151415613586576001905061358b565b600090505b92915050565b60006001151560046000846000191660001916815260200190815260200160002060020160008573ffffffffffffffffffffffffffffffffffffffff1673ffffffffffffffffffffffffffffffffffffffff16815260200190815260200160002060009054906101000a900460ff16151514156136115760019050613616565b600090505b92915050565b60006001151560046000846000191660001916815260200190815260200160002060030160008573ffffffffffffffffffffffffffffffffffffffff1673ffffffffffffffffffffffffffffffffffffffff16815260200190815260200160002060009054906101000a900460ff161515141561369c57600190506136a1565b600090505b92915050565b7f423e2cfeb77afca996aa68c849d36f546ce094000b815aff15c43846c36513f2434287878787876040518088815260200187815260200186600019166000191681526020018573ffffffffffffffffffffffffffffffffffffffff1673ffffffffffffffffffffffffffffffffffffffff1681526020018473ffffffffffffffffffffffffffffffffffffffff1673ffffffffffffffffffffffffffffffffffffffff16815260200183600481111561375d57fe5b60ff16815260200182600481111561377157fe5b60ff16815260200197505050505050505060405180910390a15050505050565b600042600460008460001916600019168152602001908152602001600020600a0160008573ffffffffffffffffffffffffffffffffffffffff1673ffffffffffffffffffffffffffffffffffffffff168152602001908152602001600020600001541115801561385e575042600460008460001916600019168152602001908152602001600020600a0160008573ffffffffffffffffffffffffffffffffffffffff1673ffffffffffffffffffffffffffffffffffffffff16815260200190815260200160002060010154115b1561386c5760019050613a23565b42600460008460001916600019168152602001908152602001600020600b0160008573ffffffffffffffffffffffffffffffffffffffff1673ffffffffffffffffffffffffffffffffffffffff1681526020019081526020016000206000015411158015613937575042600460008460001916600019168152602001908152602001600020600b0160008573ffffffffffffffffffffffffffffffffffffffff1673ffffffffffffffffffffffffffffffffffffffff16815260200190815260200160002060010154115b156139455760029050613a23565b42600460008460001916600019168152602001908152602001600020600c0160008573ffffffffffffffffffffffffffffffffffffffff1673ffffffffffffffffffffffffffffffffffffffff1681526020019081526020016000206000015411158015613a10575042600460008460001916600019168152602001908152602001600020600c0160008573ffffffffffffffffffffffffffffffffffffffff1673ffffffffffffffffffffffffffffffffffffffff16815260200190815260200160002060010154115b15613a1e5760039050613a23565b600490505b92915050565b6000613a358383613506565b15613a435760019050613a74565b613a4d8383613591565b15613a5b5760029050613a74565b613a65838361361c565b15613a735760039050613a74565b5b929150505600a165627a7a72305820feaca85083ef26dcf1c2df9fec18bc9d6566f4d61254627b3a73b14822928e6e0029",
  "source": "pragma solidity ^0.4.23;\n\nimport \"./NotarizationManagement.sol\";\n\ncontract PermissionManagement is NotarizationManagement{\n\n  //struct to hold permissions of respective hashes\n  struct Permissions{\n    address master;\n    mapping(address => bool) owner;\n    mapping(address => bool) write;\n    mapping(address => bool) read;\n    uint ownerLength;\n    uint writeLength;\n    uint readLength;\n    mapping(address => bool) isBaseRestricted;\n    mapping(address => bool) isTemporarilyUpgraded;\n    mapping(address => bool) isUpgradedAgain;\n    mapping(address => TimeBounds) ownerTime;\n    mapping(address => TimeBounds) writeTime;\n    mapping(address => TimeBounds) readTime;\n  }\n  //how to access above varibles\n  //permissionOf[_hash].owner[_delegate]\n  //permissionOf[_hash].ownerTime[_delegate].fromTime\n  //permissiosOf[_hash].isBaseRestricted[_delegate]\n\n  struct TimeBounds{\n    uint256 fromTime;\n    uint256 toTime;\n  }\n\n  //maps to all the permissions of a particular hash\n  // bytes32 to store the hash\n  mapping(bytes32 => Permissions) permissionOf;\n\n  event NewDocument(bytes32 hash, address master, uint blockNumber);\n\n  constructor() public{\n    owner = msg.sender;\n  }\n\n  /**\n  * @dev use to create a new document with new hash\n  * @param _hash hash of the document\n  */\n  function newDocument(bytes32 _hash) public returns (bool success){\n    if (documentExists(_hash)) {\n      success = false;\n    }else{\n      ++documentCount;\n      permissionOf[_hash].master = msg.sender;\n      usedHashes[_hash] = true;\n      history.push(DocumentTransfer(block.number, block.timestamp, _hash, msg.sender, msg.sender, PermissionType.master, PermissionType.master));\n      emit NewDocument(_hash, msg.sender, block.number);\n      success = true;\n    }\n    return success;\n  }\n\n  /**\n  * @dev use to check what permissions the caller hash\n  * @param _hash hash of the document\n  */\n  function checkYourPermission(bytes32 _hash) public view returns(PermissionType){\n    require(documentExists(_hash), \"Document does not exist\");\n    return checkPermission(msg.sender, _hash);\n  }\n\n  /**\n  * @dev use to check what permissions the delegate hash\n  * @param _delegate Ethereum address of whos permission is to be checked\n  * @param _hash hash of the document\n  */\n  function checkDelegatePermission(address _delegate, bytes32 _hash) public view returns (PermissionType) {\n    require(documentExists(_hash), \"Document does not exist\");\n    if(checkPermission(msg.sender, _hash) != PermissionType.none ){\n      return checkPermission(_delegate, _hash);\n    }else{\n      return PermissionType.none;\n    }\n  }\n\n  /**\n  * @dev use to check what permissions the delegate hash\n  * @param _delegate Ethereum address of whos permission is to be checked\n  * @param _hash hash of the document\n  */\n  function checkPermission(address _delegate, bytes32 _hash) private view returns (PermissionType){\n    if(permissionOf[_hash].master == _delegate){\n      return PermissionType.master;\n    }\n    //checking if the delegte's permission are time restricted or not\n    if(permissionOf[_hash].isBaseRestricted[_delegate] == false){\n      //checking if there is any upgrade\n      if(permissionOf[_hash].isTemporarilyUpgraded[_delegate] == true){\n        if(checkTimedPermission(_delegate,_hash) != PermissionType.none){\n          return checkTimedPermission(_delegate, _hash);\n        }else{\n          return checkPermanentPermission(_delegate,_hash);\n        }\n      }else{\n        return checkPermanentPermission(_delegate, _hash);\n      }\n    }else if(permissionOf[_hash].isBaseRestricted[_delegate] == true){\n      return checkTimedPermission(_delegate,_hash);\n    }else{\n      return PermissionType.none;\n    }\n  }\n\n  /**\n  * @dev use to check just the base permission of delegate\n  * @param _delegate Ethereum address of whos permission is to be checked\n  * @param _hash hash of the document\n  */\n  function checkPermanentPermission(address _delegate, bytes32 _hash) private view returns(PermissionType){\n    if(isOwner(_delegate, _hash)){\n      return PermissionType.owner;\n    }else if(isWriter(_delegate, _hash)){\n      return PermissionType.write;\n    }else if(isReader(_delegate, _hash)){\n      return PermissionType.read;\n    }\n  }\n\n  /**\n  * @dev use to check just the base permission of delegate\n  * @param _delegate Ethereum address of whos permission is to be checked\n  * @param _hash hash of the document\n  */\n  function checkTimedPermission(address _delegate, bytes32 _hash) private view returns(PermissionType){\n    if(permissionOf[_hash].ownerTime[_delegate].fromTime <= now && permissionOf[_hash].ownerTime[_delegate].toTime > now){\n      return PermissionType.owner;\n    }else if(permissionOf[_hash].writeTime[_delegate].fromTime <= now && permissionOf[_hash].writeTime[_delegate].toTime > now){\n      return PermissionType.write;\n    }else if(permissionOf[_hash].readTime[_delegate].fromTime <= now && permissionOf[_hash].readTime[_delegate].toTime > now){\n      return PermissionType.read;\n    }else{\n      return PermissionType.none;\n    }\n  }\n\n  /**\n  * @dev use to delegate owner access to any ethereum address\n  * @param _delegate Ethereum address to whom permission is to be delegated\n  * @param _hash hash of the document\n  */\n  function delegatePermanentOwner(address _delegate, bytes32 _hash) public{\n    require(documentExists(_hash), \"Document does not exist\");\n    require(permissionOf[_hash].master == msg.sender, \"Caller does not has master access\");\n    require(checkPermission(_delegate, _hash) != PermissionType.owner, \"Delegate already exists\");\n\n    permissionOf[_hash].isBaseRestricted[_delegate] = false;\n    permissionOf[_hash].owner[_delegate] = true;\n    permissionOf[_hash].ownerLength++;\n    transferDocument( _hash, msg.sender, _delegate, PermissionType.master, PermissionType.owner);\n  }\n\n  /**\n  * @dev use to speicfy time from and till the access is granted\n  * @param _delegate Ethereum address to whom permission is to be delegated\n  * @param _hash hash of the document\n  * @param _fromTime Time from which the delegate has access\n  *@param _toTime Time till which the delegate has access\n  */\n  function delegateTimeRestrictedOwner(address _delegate, bytes32 _hash, uint256 _fromTime, uint256 _toTime) public{\n    require(documentExists(_hash), \"Document does not exist\");\n    require(permissionOf[_hash].master == msg.sender, \"Caller does not has master access\");\n    require(checkPermission(_delegate, _hash) != PermissionType.owner, \"Delegate already exists.\");\n    //checking if _delegate already has write or read permission\n    if(checkPermission(_delegate, _hash) == PermissionType.write || checkPermission(_delegate, _hash) == PermissionType.read){\n      //checking if _delegate has write permission\n      if(checkPermission(_delegate, _hash) == PermissionType.write){\n        //checking if write or read permission is restricted\n        if(permissionOf[_hash].isBaseRestricted[_delegate] == true){\n          //checking if write permission is upgraded and read permission is base permission\n          if(permissionOf[_hash].isTemporarilyUpgraded[_delegate] == true){\n            //checking if owner time bounds are inside write time bounds\n            if(permissionOf[_hash].writeTime[_delegate].fromTime <= _fromTime && permissionOf[_hash].writeTime[_delegate].toTime >= _toTime){\n              permissionOf[_hash].isUpgradedAgain[_delegate] = true; // since this is the 2nd upgrade\n              permissionOf[_hash].ownerTime[_delegate].fromTime = _fromTime;\n              permissionOf[_hash].ownerTime[_delegate].toTime = _toTime;\n              return;\n            }else{\n              //nothing happens when owner time bounds are outside write time bounds\n              return;\n            }\n          }else{\n            if(permissionOf[_hash].writeTime[_delegate].fromTime <= _fromTime && permissionOf[_hash].writeTime[_delegate].toTime >= _toTime){\n              permissionOf[_hash].isTemporarilyUpgraded[_delegate] = true;\n              permissionOf[_hash].ownerTime[_delegate].fromTime = _fromTime;\n              permissionOf[_hash].ownerTime[_delegate].toTime = _toTime;\n              return;\n            }else{\n              //nothing happens when owner time bounds are outside write time bounds\n              return;\n            }\n          }\n        }else if(permissionOf[_hash].isTemporarilyUpgraded[_delegate] == true){\n          if(permissionOf[_hash].writeTime[_delegate].fromTime <= _fromTime && permissionOf[_hash].writeTime[_delegate].toTime >= _toTime){\n            permissionOf[_hash].isUpgradedAgain[_delegate] = true; //since this is the 2nd upgrade\n            permissionOf[_hash].ownerTime[_delegate].fromTime = _fromTime;\n            permissionOf[_hash].ownerTime[_delegate].toTime = _toTime;\n            return;\n          }else{\n            //nothing happens when owner time bounds are outside write time bounds\n            return;\n          }\n        }else{\n          permissionOf[_hash].isTemporarilyUpgraded[_delegate] = true;\n          permissionOf[_hash].ownerTime[_delegate].fromTime = _fromTime;\n          permissionOf[_hash].ownerTime[_delegate].toTime = _toTime;\n          return;\n        }\n      }else if(checkPermission(_delegate, _hash) == PermissionType.read){\n        //checking if read permission restricted or unrestricted\n        if(permissionOf[_hash].isBaseRestricted[_delegate] == true){\n          //checking if the write time bounds are inside the read time bounds\n          if(permissionOf[_hash].readTime[_delegate].fromTime <= _fromTime && permissionOf[_hash].readTime[_delegate].toTime >= _toTime){\n            permissionOf[_hash].isTemporarilyUpgraded[_delegate] = true;\n            permissionOf[_hash].ownerTime[_delegate].fromTime = _fromTime;\n            permissionOf[_hash].ownerTime[_delegate].toTime = _toTime;\n            return;\n          }else{\n            //nothing happens when the write time bounds are outside the read time bounds\n            return;\n          }\n        }else{\n          //executed when read permission is unrestricted\n          permissionOf[_hash].isTemporarilyUpgraded[_delegate] = true;\n          permissionOf[_hash].ownerTime[_delegate].fromTime = _fromTime;\n          permissionOf[_hash].ownerTime[_delegate].toTime = _toTime;\n          return;\n        }\n      }\n    }else{\n      permissionOf[_hash].isBaseRestricted[_delegate] = true;\n      permissionOf[_hash].ownerTime[_delegate].fromTime = _fromTime;\n      permissionOf[_hash].ownerTime[_delegate].toTime = _toTime;\n      return;\n    }\n  }\n\n  /**\n  * @dev use to remove owner access of existing owner\n  * @param _delegate Ethereum address to whom permission is to be delegated\n  * @param _hash hash of the document\n  */\n  function removePermanentOwner(address _delegate, bytes32 _hash) public{\n    require(documentExists(_hash), \"Document does not exist\");\n    require(permissionOf[_hash].master == msg.sender, \"Caller does not has master access\");\n    require(checkPermission(_delegate, _hash) == PermissionType.owner, \"Not an owner.\");\n\n    permissionOf[_hash].owner[_delegate] = false;\n    permissionOf[_hash].ownerLength--;\n    transferDocument( _hash, msg.sender, _delegate, PermissionType.master, PermissionType.none);\n  }\n\n  /**\n  * @dev use to delegate write access to any ethereum address\n  * @param _delegate Ethereum address to whom permission is to be delegated\n  * @param _hash hash of the document\n  */\n  function delegatePermanentWrite(address _delegate, bytes32 _hash) public{\n    require(documentExists(_hash), \"Document does not exist\");\n    require(checkPermission(_delegate, _hash) != PermissionType.write, \"Delegate Already Exists\");\n\n    PermissionType permissionOfCaller = checkPermission(msg.sender,_hash);\n    if(permissionOfCaller == PermissionType.master || permissionOfCaller == PermissionType.owner){\n      permissionOf[_hash].isBaseRestricted[_delegate] = false;\n      permissionOf[_hash].write[_delegate] = true;\n      permissionOf[_hash].writeLength++;\n      transferDocument( _hash, msg.sender, _delegate, permissionOfCaller ,PermissionType.write);\n    }\n  }\n\n  /**\n  * @dev use to speicfy time from and till the access is granted\n  * @param _delegate Ethereum address to whom permission is to be delegated\n  * @param _hash hash of the document\n  * @param _fromTime Time from which the delegate has access\n  *@param _toTime Time till which the delegate has access\n  */\n  function delegateTimeRestrictedWrite(address _delegate, bytes32 _hash, uint256 _fromTime, uint256 _toTime) public{\n    require(documentExists(_hash), \"Document does not exist\");\n    require(checkPermission(_delegate, _hash) != PermissionType.write, \"Delegate Already Exists\");\n\n    //checking if the caller has master or owner access\n    if(checkPermission(msg.sender, _hash) == PermissionType.master || checkPermission(msg.sender, _hash) == PermissionType.owner){\n      //checking if the _delegate already has read permission\n      if(checkPermission(_delegate, _hash) == PermissionType.read){\n        //checking if read permission restricted or unrestricted\n        if(permissionOf[_hash].isBaseRestricted[_delegate] == true){\n          //checking if the write time bounds are inside the read time bounds\n          if(permissionOf[_hash].readTime[_delegate].fromTime <= _fromTime && permissionOf[_hash].readTime[_delegate].toTime >= _toTime){\n            permissionOf[_hash].isTemporarilyUpgraded[_delegate] = true;\n            permissionOf[_hash].writeTime[_delegate].fromTime = _fromTime;\n            permissionOf[_hash].writeTime[_delegate].toTime = _toTime;\n            return;\n          }else{\n            //nothing happens when the write time bounds are outside the read time bounds\n            return;\n          }\n        }else{\n          //executed when read permission is unrestricted\n          permissionOf[_hash].isTemporarilyUpgraded[_delegate] = true;\n          permissionOf[_hash].writeTime[_delegate].fromTime = _fromTime;\n          permissionOf[_hash].writeTime[_delegate].toTime = _toTime;\n          return;\n        }\n      }\n\n      //executed when delegate does not already have read permission\n      permissionOf[_hash].isBaseRestricted[_delegate] = true;\n      permissionOf[_hash].writeTime[_delegate].fromTime = _fromTime;\n      permissionOf[_hash].writeTime[_delegate].toTime = _toTime;\n      return;\n    }else{\n      //nothing happens if the caller has neither master access nor owner access\n      return;\n    }\n  }\n\n  /**\n  * @dev use to remove write access of any ethereum address\n  * @param _delegate Ethereum address of whos permission is to be removed\n  * @param _hash hash of the document\n  */\n  function removePermanentWrite(address _delegate, bytes32 _hash) public{\n    require(documentExists(_hash), \"Document does not exist\");\n    require(checkPermission(_delegate, _hash) == PermissionType.write, \"Delegate does not exist.\");\n\n    PermissionType permissionOfCaller = checkPermission(msg.sender, _hash);\n    if(permissionOfCaller == PermissionType.master || permissionOfCaller == PermissionType.owner){\n      permissionOf[_hash].write[_delegate] = false;\n      permissionOf[_hash].writeLength--;\n      transferDocument( _hash, msg.sender, _delegate, permissionOfCaller, PermissionType.none);\n    }\n  }\n\n  /**\n  * @dev use to delegate read access to any ethereum address\n  * @param _delegate Ethereum address to whom permission is to be delegated\n  * @param _hash hash of the document\n  */\n  function delegatePermanentRead(address _delegate, bytes32 _hash) public{\n    require(documentExists(_hash), \"Document does not exist\");\n    require(checkPermission(_delegate, _hash) != PermissionType.read);\n    //require(isReader(_delegate, _hash) == false, \"Delegate Already Exists\");\n\n    PermissionType permissionOfCaller = checkPermission(_delegate, _hash);\n    if(permissionOfCaller != PermissionType.read && permissionOfCaller != PermissionType.none){\n      permissionOf[_hash].isBaseRestricted[_delegate] = false;\n      permissionOf[_hash].readLength++;\n      transferDocument( _hash, msg.sender, _delegate, permissionOfCaller, PermissionType.read);\n    }\n  }\n\n  /**\n  * @dev use to speicfy time from and till the access is granted\n  * @param _delegate Ethereum address to whom permission is to be delegated\n  * @param _hash hash of the document\n  * @param _fromTime Time from which the delegate has access\n  *@param _toTime Time till which the delegate has access\n  */\n  function delegateTimeRestrictedRead(address _delegate, bytes32 _hash, uint256 _fromTime, uint256 _toTime) public{\n    require(documentExists(_hash), \"Document does not exist\");\n    require(checkPermission(_delegate,_hash) != PermissionType.read, \"Delegate already exists.\");\n    if(permissionOf[_hash].master == msg.sender || isOwner( msg.sender, _hash) || isWriter(msg.sender, _hash) || isReader(msg.sender, _hash)){\n      permissionOf[_hash].isBaseRestricted[_delegate] = true;\n      permissionOf[_hash].readTime[_delegate].fromTime = _fromTime;\n      permissionOf[_hash].readTime[_delegate].toTime = _toTime;\n    }\n  }\n\n  /**\n  * @dev use to remove read access of any ethereum address\n  * @param _delegate Ethereum address of whos permission is to be removed\n  * @param _hash hash of the document\n  */\n  function removePermanentRead(address _delegate, bytes32 _hash) public{\n    require(documentExists(_hash), \"Document does not exist\");\n    require(checkPermission(_delegate, _hash) == PermissionType.read, \"Delegate does not exist.\");\n\n    PermissionType permissionOfCaller = checkPermission(_delegate, _hash);\n    if(permissionOfCaller != PermissionType.read && permissionOfCaller != PermissionType.none){\n      permissionOf[_hash].read[_delegate] = false;\n      permissionOf[_hash].readLength--;\n      transferDocument( _hash, msg.sender, _delegate, permissionOfCaller, PermissionType.none);\n    }\n  }\n\n\n  /**\n  * @dev use to check if the delegate has owner exists\n  * @param _delegate Ethereum address of whos owner access is being checked\n  * @param _hash hash of the document\n  */\n  function isOwner(address _delegate, bytes32 _hash) private view returns (bool){\n    if(permissionOf[_hash].owner[_delegate] == true){\n      return true;\n    }else{\n      return false;\n    }\n  }\n\n  /**\n  * @dev use to check if has delegate has owner exists\n  * @param _delegate Ethereum address of whos write access is being checked\n  * @param _hash hash of the document\n  */\n  function isWriter(address _delegate, bytes32 _hash) private view returns (bool){\n    if(permissionOf[_hash].write[_delegate] == true){\n      return true;\n    }else{\n      return false;\n    }\n  }\n\n  /**\n  * @dev use to check if has delegate has read exists\n  * @param _delegate Ethereum address of whos read access is being checked\n  * @param _hash hash of the document\n  */\n  function isReader(address _delegate, bytes32 _hash) private view returns (bool){\n    if(permissionOf[_hash].read[_delegate] == true){\n      return true;\n    }else{\n      return false;\n    }\n  }\n\n}\n",
  "sourcePath": "/home/ashwin/Desktop/Rockchain/forTruffle/contracts/PermissionManagement.sol",
  "compiler": {
    "name": "solc",
    "version": "0.4.24+commit.e67f0147.Emscripten.clang"
  },
  "schemaVersion": "2.0.0",
  "updatedAt": "2018-07-10T09:12:14.360Z"
}